:100000000EC028C027C026C025C074C023C022C08F
:1000100021C020C01FC01EC01DC01CC01BC0112499
:100020001FBECFE5D2E0DEBFCDBF10E0A0E6B0E05E
:10003000E0E1F2E002C005900D92A436B107D9F7D5
:1000400010E0A4E6B0E001C01D92AA36B107E1F7C6
:1000500002D0DCC0D5CFCF92DF92EF92FF920F9308
:100060001F93CF93DF93F89487E087BB8FEF88BB14
:100070001ABC81E083BF82E089BF78942091680038
:1000800030916900A0E0B0E0CC24DD246894C2F88F
:10009000EE24FF246894E1F801E010E0C8E3D0E02A
:1000A00080916000909161008217930710F0FD012C
:1000B00001C0F6018091640090916500821793075A
:1000C00010F0BD0101C0B701809162009091630002
:1000D000AD018217930708F4A801CF01840F951F83
:1000E000860F971F2F5F3F4F88832B3F3105C0F24C
:1000F0009D01D6CF1F920F920FB60F9211248F93AE
:100100009F9380916600909167008130910539F14D
:100110008230910509F442C0892B09F05CC08091BE
:100120006200909163000197909363008093620056
:100130008091640090916500019690936500809392
:1001400064008091620090916300892B09F057C090
:1001500081E090E0909367008093660050C08091AA
:10016000640090916500019790936500809364000E
:10017000809160009091610001969093610080935E
:1001800060008091640090916500892BC1F582E048
:1001900090E0909367008093660031C0809160008A
:1001A000909161000197909361008093600080912D
:1001B00062009091630001969093630080936200C7
:1001C0008091600090916100892BC9F410926700C2
:1001D0001092660014C08FEF90E0909361008093BE
:1001E00060001092650010926400109263001092FB
:1001F000620082E090E090936700809366009F9198
:100200008F910F900FBE0F901F901895F894FFCF0D
:04021000FF00FF00EC
:00000001FF
